:020000040800F2
:100000000000022051260108F12A0008F32A000806
:10001000F92A0008FB2A0008FD2A00080000000059
:10002000000000000000000000000000919E000899
:10003000FF2A000800000000319F0008959F00087B
:10004000A1260108A1260108A1260108A126010870
:10005000012B0008A1260108A1260108A1260108FC
:10006000A1260108092B0008132B0008A12601086E
:100070001D2B00082D2B0008A1260108A126010830
:10008000A1260108A1260108A1260108A126010830
:100090003D2B00084D2B0008A12601085D2B000810
:1000A000A1260108A1260108A1260108A126010810
:1000B000A1260108A1260108A1260108A126010800
:1000C000A1260108692B0008792B0008892B00085C
:1000D000992B0008A92B0008A1260108B92B0008BC
:1000E000A1260108A1260108A1260108A1260108D0
:1000F000A1260108C92B0008A1260108E12B000850
:10010000A1260108A1260108A1260108A1260108AF
:10011000A1260108A1260108A1260108A12601089F
:10012000F12B0008A1260108012C0008112C000861
:10013000A1260108A1260108A1260108A12601087F
:10014000212C0008312C0008A1260108412C0008B0
:10015000512C0008612C0008712C0008812C00082B
:10016000912C0008A12C0008A1260108A126010855
:10017000A1260108A1260108A1260108000000000F
:08018000A1260108A1260108D7
:1001900010B5054C237833B9044B13B10448AFF3C1
:1001A00000800123237010BD3006002000000000F5
:1001B000204B010808B5034B1BB103490348AFF3BB
:1001C000008008BD0000000034060020204B01081C
:1001D00010F8012B11F8013B012A28BF9A42F7D0F1
:1001E000D01A7047034613F8012B002AFBD1181AC6
:1001F000013870470000000000000000000000000F
:1002000001F0FF01102A2BDB10F0070F08D010F8C7
:10021000013B013A8B422DD010F0070F42B3F6D1CB
:10022000F0B441EA012141EA014122F007047FF0E4
:1002300000070023F0E80256083C85EA010586EA3B
:10024000010685FA47F5A3FA87F586FA47F6A5FA77
:1002500087F68EB9EED1F0BC01F0FF0102F0070283
:1002600032B110F8013B013A83EA010313B1F8D12E
:100270000020704701387047002D06BF354603380F
:10028000073815F0010F07D1013015F4807F02BF48
:10029000013015F4C03F0130F0BC0138704700BF99
:1002A00081F0004102E000BF83F0004330B54FEA27
:1002B00041044FEA430594EA050F08BF90EA020F94
:1002C0001FBF54EA000C55EA020C7FEA645C7FEA27
:1002D000655C00F0E2804FEA5454D4EB5555B8BF4A
:1002E0006D420CDD2C4480EA020281EA030382EABB
:1002F000000083EA010180EA020281EA0303362D4D
:1003000088BF30BD11F0004F4FEA01314FF4801C1F
:100310004CEA113102D0404261EB410113F0004F31
:100320004FEA03334CEA133302D0524263EB4303E8
:1003300094EA050F00F0A780A4F10104D5F1200E86
:100340000DDB02FA0EFC22FA05F2801841F10001E1
:1003500003FA0EF2801843FA05F359410EE0A5F1B5
:1003600020050EF1200E012A03FA0EFC28BF4CF0E6
:10037000020C43FA05F3C01851EBE37101F000459C
:1003800007D54FF0000EDCF1000C7EEB00006EEBA9
:100390000101B1F5801F1BD3B1F5001F0CD3490833
:1003A0005FEA30004FEA3C0C04F101044FEA44528A
:1003B00012F5800F80F09A80BCF1004F08BF5FEA11
:1003C000500C50F1000041EB045141EA050130BDF1
:1003D0005FEA4C0C404141EB0101013C28BFB1F503
:1003E000801FE9D291F0000F04BF01460020B1FA4E
:1003F00081F308BF2033A3F10B03B3F120020CDA21
:100400000C3208DD02F1140CC2F10C0201FA0CF0FE
:1004100021FA02F10CE002F11402D8BFC2F1200C63
:1004200001FA02F120FA0CFCDCBF41EA0C01904019
:10043000E41AA2BF01EB0451294330BD6FEA040462
:100440001F3C1CDA0C340EDC04F11404C4F120024D
:1004500020FA04F001FA02F340EA030021FA04F35F
:1004600045EA030130BDC4F10C04C4F1200220FAB6
:1004700002F001FA04F340EA0300294630BD21FAF4
:1004800004F0294630BD94F0000F83F4801306BFBA
:1004900081F480110134013D4EE77FEA645C18BFAE
:1004A0007FEA655C29D094EA050F08BF90EA020F45
:1004B00005D054EA000C04BF1946104630BD91EA3D
:1004C000030F1EBF0021002030BD5FEA545C05D140
:1004D0004000494128BF41F0004130BD14F580047F
:1004E0003CBF01F5801130BD01F0004545F0FE41F3
:1004F00041F470014FF0000030BD7FEA645C1ABF28
:10050000194610467FEA655C1CBF0B46024650EA5E
:10051000013406BF52EA033591EA030F41F400218A
:1005200030BD00BF90F0000F04BF0021704730B510
:100530004FF4806404F132044FF000054FF00001E5
:1005400050E700BF90F0000F04BF0021704730B5A6
:100550004FF4806404F1320410F0004548BF40427B
:100560004FF000013EE700BF42004FEAE2014FEAD0
:1005700031014FEA02701FBF12F07F4393F07F4FAB
:1005800081F06051704732F07F4208BF704793F0AE
:100590007F4F04BF41F40021704730B54FF46074C1
:1005A00001F0004521F000411CE700BF50EA0102C4
:1005B00008BF704730B54FF000050AE050EA01026D
:1005C00008BF704730B511F0004502D5404261EBDD
:1005D00041014FF4806404F132045FEA915C3FF41E
:1005E000D8AE4FF003025FEADC0C18BF03325FEABB
:1005F000DC0C18BF033202EBDC02C2F1200300FA6C
:1006000003FC20FA02F001FA03FE40EA0E0021FA90
:1006100002F11444BDE600BF70B54FF0FF0C4CF47E
:10062000E06C1CEA11541DBF1CEA135594EA0C0F30
:1006300095EA0C0F00F0DEF82C4481EA030621EA6B
:100640004C5123EA4C5350EA013518BF52EA0335A6
:1006500041F4801143F4801338D0A0FB02CE4FF058
:100660000005E1FB02E506F00042E0FB03E54FF088
:100670000006E1FB03569CF0000F18BF4EF0010E80
:10068000A4F1FF04B6F5007F64F5407404D25FEA7C
:100690004E0E6D4146EB060642EAC62141EA55512F
:1006A0004FEAC52040EA5E504FEACE2EB4F1FD0C71
:1006B00088BFBCF5E06F1ED8BEF1004F08BF5FEAEF
:1006C000500E50F1000041EB045170BD06F00046A1
:1006D00046EA010140EA020081EA0301B4EB5C044E
:1006E000C2BFD4EB0C0541EA045170BD41F4801146
:1006F0004FF0000E013C00F3AB8014F1360FDEBF6B
:10070000002001F0004170BDC4F10004203C35DA46
:100710000C341BDC04F11404C4F1200500FA05F3C9
:1007200020FA04F001FA05F240EA020001F000426A
:1007300021F0004110EBD37021FA04F642EB0601E0
:100740005EEA430E08BF20EAD37070BDC4F10C040A
:10075000C4F1200500FA04F320FA05F001FA04F2CE
:1007600040EA020001F0004110EBD37041F10001BA
:100770005EEA430E08BF20EAD37070BDC4F12005C5
:1007800000FA05F24EEA020E20FA04F301FA05F22D
:1007900043EA020321FA04F001F0004121FA04F2D5
:1007A00020EA020000EBD3705EEA430E08BF20EAA5
:1007B000D37070BD94F0000F0FD101F000464000DF
:1007C00041EB010111F4801F08BF013CF7D041EA61
:1007D000060195F0000F18BF704703F00046520065
:1007E00043EB030313F4801F08BF013DF7D043EA36
:1007F0000603704794EA0C0F0CEA135518BF95EAEC
:100800000C0F0CD050EA410618BF52EA4306D1D172
:1008100081EA030101F000414FF0000070BD50EA91
:10082000410606BF1046194652EA430619D094EA1B
:100830000C0F02D150EA013613D195EA0C0F05D105
:1008400052EA03361CBF104619460AD181EA030159
:1008500001F0004141F0FE4141F470014FF0000011
:1008600070BD41F0FE4141F4780170BD70B54FF0AC
:10087000FF0C4CF4E06C1CEA11541DBF1CEA13552C
:1008800094EA0C0F95EA0C0F00F0A7F8A4EB05040E
:1008900081EA030E52EA03354FEA013100F0888005
:1008A0004FEA03334FF0805545EA131343EA1263CE
:1008B0004FEA022245EA111545EA10654FEA002683
:1008C0000EF000419D4208BF964244F1FD0404F53C
:1008D000407402D25B084FEA3202B61A65EB030598
:1008E0005B084FEA32024FF480104FF4002CB6EB55
:1008F000020E75EB030E22BFB61A754640EA0C00D5
:100900005B084FEA3202B6EB020E75EB030E22BF14
:10091000B61A754640EA5C005B084FEA3202B6EB55
:10092000020E75EB030E22BFB61A754640EA9C0014
:100930005B084FEA3202B6EB020E75EB030E22BFE4
:10094000B61A754640EADC0055EA060E18D04FEAA2
:10095000051545EA16754FEA06164FEAC30343EA42
:1009600052734FEAC2025FEA1C1CC0D111F4801F0F
:100970000BD141EA00014FF000004FF0004CB6E708
:1009800011F4801F04BF01430020B4F1FD0C88BFA7
:10099000BCF5E06F3FF6AFAEB5EB030C04BFB6EBB2
:1009A000020C5FEA500C50F1000041EB045170BDA5
:1009B0000EF0004E4EEA113114EB5C04C2BFD4EBD2
:1009C0000C0541EA045170BD41F480114FF0000E56
:1009D000013C90E645EA060E8DE60CEA135594EAD2
:1009E0000C0F08BF95EA0C0F3FF43BAF94EA0C0FD5
:1009F0000AD150EA01347FF434AF95EA0C0F7FF44A
:100A000025AF104619462CE795EA0C0F06D152EA9D
:100A100003353FF4FDAE1046194622E750EA410681
:100A200018BF52EA43067FF4C5AE50EA41047FF492
:100A30000DAF52EA43057FF4EBAE12E74FF0FF3CF7
:100A400006E000BF4FF0010C02E000BF4FF0010CC8
:100A50004DF804CD4FEA410C7FEA6C5C4FEA430C41
:100A600018BF7FEA6C5C1BD001B050EA410C0CBF90
:100A700052EA430C91EA030F02BF90EA020F0020F2
:100A8000704710F1000F91EA030F58BF994208BF59
:100A900090422CBFD8176FEAE37040F00100704716
:100AA0004FEA410C7FEA6C5C02D150EA013C07D16D
:100AB0004FEA430C7FEA6C5CD6D152EA033CD3D0B8
:100AC0005DF8040B704700BF8446104662468C46B2
:100AD0001946634600E000BF01B5FFF7B7FF0028E5
:100AE00048BF10F1000F01BD4DF808EDFFF7F4FF0E
:100AF0000CBF012000205DF808FB00BF4DF808ED99
:100B0000FFF7EAFF34BF012000205DF808FB00BFBB
:100B10004DF808EDFFF7E0FF94BF012000205DF8DD
:100B200008FB00BF4DF808EDFFF7CEFF94BF012092
:100B300000205DF808FB00BF4DF808EDFFF7C4FF8B
:100B400034BF012000205DF808FB00BF4FEA410CD4
:100B50007FEA6C5C02D150EA013C0AD14FEA430CB7
:100B60007FEA6C5C02D152EA033C02D14FF00000F4
:100B700070474FF0010070474FEA4102B2F1E04385
:100B800024BFB3F5001CDCF1FE5C0DD901F0004C74
:100B90004FEAC0024CEA5070B2F1004F40EB8300C4
:100BA00008BF20F00100704711F0804F21D113F1F0
:100BB0003872BCBF01F00040704741F480114FEA29
:100BC0005252C2F11802C2F1200C10FA0CF320FAB2
:100BD00002F018BF40F001004FEAC1234FEAD323CF
:100BE00003FA0CFC40EA0C0023FA02F34FEA430339
:100BF000CCE77FEA625307D150EA01331EBF4FF0C2
:100C0000FE4040F44000704701F0004040F0FE40DC
:100C100040F40000704700BF53B94AB9002908BF2B
:100C200000281CBF4FF0FF314FF0FF3000F088B9B3
:100C3000ADF1080C6DE904CE00F006F8DDF804E033
:100C4000DDE9022304B070472DE9F047089D8E4688
:100C500004468846002B4AD18A42174662D9B2FA26
:100C600082F64EB1C6F1200301FA06F820FA03F32A
:100C7000B74043EA0808B4404FEA174E1FFA87FC12
:100C8000B8FBFEF1230C0EFB118843EA084301FB7D
:100C90000CF29A4209D9FB1801F1FF3080F0EA808A
:100CA0009A4240F2E78002393B449A1AA3B2B2FB5F
:100CB000FEF00EFB102243EA024300FB0CFC9C45B5
:100CC00009D9FB1800F1FF3280F0D6809C4540F234
:100CD000D3803B44023840EA0140A3EB0C030021DF
:100CE0001DB1F3400022C5E90032BDE8F0878B4218
:100CF00005D90DB1C5E9000100210846F5E7B3FAB1
:100D000083F1002946D1734502D3824200F2058166
:100D1000841A6EEB030201209046002DE5D0C5E950
:100D20000048E2E7002A00F09080B2FA82F6002E36
:100D300040F0A4808A1A030C4FEA174E80B2BCB26E
:100D40000121B2FBFEFC0EFB1C2243EA024304FB22
:100D50000CF29A4207D9FB180CF1FF3802D29A42E2
:100D600000F2E080C4469B1AB3FBFEF20EFB123386
:100D700040EA034302FB04F49C4207D9FB1802F14A
:100D8000FF3002D29C4200F2CA8002461B1B42EA9C
:100D90000C40A5E7C1F120068B4022FA06F71F435D
:100DA0000EFA01F420FA06F32EFA06FE4FEA17496E
:100DB000234300FA01F81FFA87FCBEFBF9F01C0C74
:100DC00009FB10EE44EA0E4400FB0CFEA64502FAB5
:100DD00001F209D93C1900F1FF3A80F09C80A64548
:100DE00040F2998002383C44A4EB0E041FFA83FEC3
:100DF000B4FBF9F309FB13444EEA044403FB0CFC77
:100E0000A44508D93C1903F1FF3E80F08280A44537
:100E10007FD9023B3C4443EA0040A4EB0C04A0FB16
:100E200002EC64457346E14662D35FD05DB1B8EB36
:100E3000030264EB090404FA06F622FA01F31E43E6
:100E4000CC40C5E9006400214FE7B1FBF2FC010C86
:100E500041EA0E4180B240EA01423B4638463C46F8
:100E6000B846BE462026B1FBF7F1A2EB080241EAE4
:100E70000C4166E7014618E710462CE7C6F1200250
:100E80002EFA02F3B740B14020FA02F24FEA174EB1
:100E90000A43B3FBFEF8BCB20EFB1833110C41EA57
:100EA000034108FB04F9B04089454FEA104380B282
:100EB0003ED9791808F1FF3C01D289451FD8A1EB32
:100EC0000901B1FBFEF909FB04F80EFB191192B2FE
:100ED00042EA0142424529D2BA1809F1FF31C4D28F
:100EE0004245C2D2A9F102013A44BEE7F0459DD283
:100EF000BEEB02036CEB070C0138E14696E7A7EB6B
:100F000009094944A8F1020CB1FBFEF909FB04F8F8
:100F1000DBE773467FE7504666E70846FDE63B445D
:100F2000023A33E7ACF1020C3B441CE749469CE72C
:100F3000A1EB0901C446B1FBFEF909FB04F8C4E7C3
:100F4000704700BF08B50268034B9A4200D008BD45
:100F500004F0C4FCFBE700BF0020004072B6FEE7CF
:100F600000B595B03022002108A811F0CBFC002379
:100F7000039304930593069307930193204A116CFE
:100F800041F080511164126C02F080520192019A7A
:100F900002931C4B1A6842F480421A601B6803F4E7
:100FA00080430293029B012308934FF480330993FB
:100FB00002230E934FF480020F9206221092A82271
:100FC000119212930723139308A803F093FB98B987
:100FD0000F23039302230493002305934FF4A0539C
:100FE00006934FF480530793052103A803F0D2FD25
:100FF00020B915B05DF804FBFFF7B0FFFFF7AEFFB7
:10100000003802400070004008B504F04DFCFFF7C6
:10101000A7FF00F02FF800F0DFFA00F02BF900F046
:1010200079F900F099F900F0B7FC00F08FFF00F0BB
:10103000E5FF01F025F900F049FC00F06FFC00F03D
:10104000F5FE01F0CBF801F003F901F039F901F0F8
:101050003FF800F025FB00F041FB00F0C1FC00F080
:101060003DFA00F063FA11F0C1FA00F0EBF808F075
:101070004FFDFEE72DE9F0438FB0002409940A9458
:101080000B940C940D9400945F4B1A6B42F0020287
:101090001A631A6B02F002020092009A01941A6B12
:1010A00042F040021A631A6B02F040020192019A68
:1010B00002941A6B42F001021A631A6B02F00102E9
:1010C0000292029A03941A6B42F008021A631A6B96
:1010D00002F008020392039A04941A6B42F004028D
:1010E0001A631A6B02F004020492049A05941A6BB4
:1010F00042F480721A631A6B02F480720592059AA8
:1011000006941A6B42F020021A631A6B02F0200256
:101110000692069A07941A6B42F080021A631A6BC1
:1011200002F080020792079A08941A6B42F01002AC
:101130001A631B6B03F010030893089B334F22467E
:101140004021384604F0D2F8314E012210213046B9
:1011500004F0CCF8DFF8C08001221146404604F0CC
:10116000C5F84023099301250A950B940C9409A90D
:10117000384603F0C5FF082309934FF40419CDF84E
:1011800028900B9509A9384603F0BAFF09950A94EF
:101190000B9509A9304603F0B3FF102309930A9574
:1011A0000B9502270C9709A9304603F0A9FF3023BD
:1011B0000993CDF828900B9409A9164803F0A0FFD5
:1011C00009950A950B950C9709A9404603F098FFDD
:1011D00022460521092004F049FB092004F056FBB2
:1011E000224605210A2004F041FB0A2004F04EFBB0
:1011F00022460521172004F039FB172004F046FB96
:101200000FB0BDE8F08300BF003802400018024074
:1012100000000240000802400004024008B501F04E
:10122000D3F9002008F0ACFC08BD0000034B0360BC
:10123000034B0B6080231360704700BF4C080020F5
:101240004C06002010B588B00DF1040C074C0FCCF3
:10125000ACE80F0094E807008CE80700002101A823
:1012600008F05BFC024B186008B010BD384B010859
:10127000B008002000B585B00023009301930293CD
:1012800003931548154A02604FF4003242608360B0
:101290000361037680F82030C362114A8262C36022
:1012A0000122C26180F83030426104F0D7FB68B996
:1012B00010230093012301930023029369460648FB
:1012C00004F0F8FB28B905B05DF804FBFFF746FE13
:1012D000EEE7FFF743FEF6E7B408002000200140E8
:1012E0000100000F0268094B9A4200D0704782B09B
:1012F00000230193064B5A6C42F480725A645B6C73
:1013000003F480730193019B02B0704700200140F9
:101310000038024008B50E480E4B036003234360BB
:1013200000238360C3604FF4102202614FF4001267
:1013300042610376437683760122C2760377427751
:1013400004F082FC00B908BDFFF708FEFBE700BF10
:10135000280900200064004008B50E480E4B0360C9
:101360000323436000238360C3604FF410220261B3
:101370004FF4001242610376437683760122C276EF
:101380000377427704F060FC00B908BDFFF7E6FD83
:10139000FBE700BF000900200068004010B58AB0DC
:1013A0000023059306930793089309930368454A1E
:1013B000934204D0444A93423CD00AB010BD434A01
:1013C000136801331360012B27D000240194404B94
:1013D0001A6B42F008021A631B6B03F008030193B7
:1013E000019B032305930222069208930923099384
:1013F00005A9384803F084FE22460521142004F094
:1014000035FA142004F042FA22460521152004F092
:101410002DFA152004F03AFACFE7002300932C4B65
:101420001A6C42F000721A641B6C03F00073009394
:10143000009BCAE700230293254B1A6C42F080629E
:101440001A641B6C03F080630293029B1F4A1368AB
:1014500001331360012B28D0002404941C4B1A6B19
:1014600042F002021A631B6B03F002030493049B15
:10147000602305930223069303230893092309930A
:1014800005A9154803F03CFE22460521402004F042
:10149000EDF9402004F0FAF922460521412004F03C
:1014A000E5F9412004F0F2F987E700230393084BA4
:1014B0001A6C42F000721A641B6C03F00073039301
:1014C000039BC9E70064004000680040FC0800205E
:1014D00000380240000C02400004024008B50548F4
:1014E000054B036004F0B4FF00B908BDFFF736FDFB
:1014F000FBE700BF50090020003002400268094BA2
:101500009A4200D0704782B000230193064B1A6BB9
:1015100042F480521A631B6B03F480530193019BC6
:1015200002B07047003002400038024000B583B07E
:101530000023009301930C480C4B036004F097FFC9
:1015400058B900230093019310226946064804F01D
:10155000A0FF28B903B05DF804FBFFF7FFFCF0E73C
:10156000FFF7FCFCF6E700BF5809002000740040BC
:1015700000B589B000230393049305930693079362
:101580000268134B9A4202D009B05DF804FB0021B7
:10159000019103F5E2331A6C42F000521A641A6C9E
:1015A00002F000520192019A02911A6B42F001027C
:1015B0001A631B6B03F001030293029B2023039326
:1015C0000323049303A9034803F09AFDDCE700BF5B
:1015D000007400400000024010B582B00024009466
:1015E0002E4B1A6B42F480021A631A6B02F48002CB
:1015F0000092009A01941A6B42F400121A631B6B5A
:1016000003F400130193019B224605210C2004F0F2
:101610002DF90C2004F03AF9224605210D2004F0A2
:1016200025F90D2004F032F9224605212F2004F07F
:101630001DF92F2004F02AF922462146382004F013
:1016400015F9382004F022F9224605213A2004F049
:101650000DF93A2004F01AF9224621463B2004F005
:1016600005F93B2004F012F922462146442004F0FB
:10167000FDF8442004F00AF922460521452004F033
:10168000F5F8452004F002F922460521462004F031
:10169000EDF8462004F0FAF802B010BD0038024020
:1016A00008B50B480B4B03600B4B43600023836072
:1016B000C3604FF48042026143618361C36103628E
:1016C00005F0E8F800B908BDFFF748FCFBE700BFEC
:1016D000800A002000580040801A060008B50B4818
:1016E0000B4B03600B4B436000238360C3604FF4DC
:1016F0008042026143618361C361036205F0CAF8FD
:1017000000B908BDFFF72AFCFBE700BF2C0A002048
:10171000005C0040801A06002DE9F0418AB00023E9
:101720000593069307930893099303685D4A9342D0
:1017300005D05D4A934269D00AB0BDE8F081044605
:1017400000250095594E336B43F020033363336B10
:1017500003F020030093009B0323059312220692BB
:1017600008930423099305A9514803F0C9FC019586
:10177000336C43F480033364336C03F480030193CC
:10178000019B4C484C4B03604FF0606343608560A5
:10179000C5604FF48063036145618561C561056281
:1017A000456203F033FE58BB424BA3639C6343483E
:1017B000434B03604FF0606343604023836000232A
:1017C000C3604FF48062026143618361C36103625D
:1017D000436203F01BFEB0B9384B63639C63002285
:1017E0000521212004F042F8212004F04FF80022C6
:1017F0000521222004F03AF8222004F047F89BE764
:10180000FFF7ACFBD0E7FFF7A9FBE5E70025029562
:10181000264C236B43F004032363236B03F0040380
:101820000293029B0395236B43F001032363236B15
:1018300003F001030393039B4FF4007305934FF0F0
:101840001208CDF81880032708970426099605A9E1
:101850001C4803F055FC4FF480730593CDF81880B5
:1018600007950897099605A9174803F049FC0495C0
:10187000236C43F400032364236C03F400030493F8
:10188000049B2A460521482003F0F0FF482003F07E
:10189000FDFF2A460521492003F0E8FF492003F017
:1018A000F5FF49E700580040005C00400038024066
:1018B00000140240CC090020406002406C09002066
:1018C000B8600240000802400000024008B5054828
:1018D000054B036005F0DAFE00B908BDFFF73EFBDB
:1018E000FBE700BFD40A0020000806500268094B3D
:1018F0009A4200D0704782B000230193064B5A6B86
:1019000042F040025A635B6B03F040030193019B7A
:1019100002B07047000806500038024008B50A4877
:101920000A4B0360002343607C22826040F67F42C2
:10193000C26003614361836105F010FF00B908BD17
:10194000FFF70CFBFBE700BFE40A00200028004083
:1019500000B585B0002300930193029303930268BE
:101960000A4B9A4202D005B05DF804FB02230093B3
:10197000074B0393684603F001FA20B9054B012297
:10198000C3F83C2EEFE7FFF7E9FAF7E7002800403D
:1019900000031E000000474208B50F480F4B0360CC
:1019A0004FF48273436000238360C36002220261AC
:1019B000012242614FF4007282611022C26103620F
:1019C000436283620A23C36205F0A8FF00B908BD21
:1019D000FFF7C4FAFBE700BF1C0C002000300140F9
:1019E00008B50F480F4B03604FF482734360002328
:1019F0008360C36002220261012242614FF40072DF
:101A000082613822C2610362436283620A23C36235
:101A100005F084FF00B908BDFFF7A0FAFBE700BF9F
:101A2000C40B0020003800402DE9F0438BB00023A8
:101A30000593069307930893099303685C4A9342BE
:101A400006D05C4A934200F087800BB0BDE8F0837B
:101A5000044600250095584B5A6C42F480525A6453
:101A60005A6C02F480520092009A01951A6B42F06F
:101A700002021A631A6B02F002020192019A0295A5
:101A80001A6B42F001021A631B6B03F0010302930D
:101A9000029B182305934FF00209CDF818904FF0E0
:101AA0000108CDF81C80032608960527099705A98B
:101AB000424803F025FB80230593CDF81890CDF81C
:101AC0001C800896099705A93D4803F019FB3D487D
:101AD0003D4B03604FF0C06343608560C5604FF4C9
:101AE0008063036145618561C5614FF440330362E2
:101AF000042343628662C562056303F087FC28BB4A
:101B0000304BE3649C633148314B03604FF0C0635A
:101B10004360402383600023C3604FF4806202610E
:101B200043618361C3614FF440320262436203F058
:101B30006DFC70B9254BA3649C6300220521232012
:101B400003F094FE232003F0A1FE7EE7FFF706FAE0
:101B5000D6E7FFF703FAEDE700240394164B1A6C5F
:101B600042F480421A641A6C02F480420392039A8F
:101B700004941A6B42F002021A631B6B03F0020317
:101B80000493049B4FF460430593022306930323BD
:101B900008930525099505A9084803F0B1FA2246DE
:101BA0002946242003F062FE242003F06FFE4CE758
:101BB000003001400038004000380240000402407C
:101BC00000000240640B002010640240040B00205F
:101BD0005864024000B587B003682C4A934218D07D
:101BE0002B4A934224D02B4A93422ED02A4A934226
:101BF00038D02A4A934218D100230593284B5A6CB7
:101C000042F400325A645B6C03F400330593059B85
:101C10000BE000230193224B5A6C42F001025A64FC
:101C20005B6C03F001030193019B07B05DF804FBBB
:101C3000002302931A4B1A6C42F004021A641B6CC4
:101C400003F004030293029BEFE700230393144B7A
:101C50001A6C42F008021A641B6C03F00803039329
:101C6000039BE2E7002204920D4B596C41F0020104
:101C700059645B6C03F002030493049B0F212D2035
:101C800003F0F4FD2D2003F001FECEE7000001403B
:101C900000080040000C00400004014000440140E6
:101CA0000038024070B58CB0002307930893099365
:101CB0000A930B930368514A93420DD0504A9342C2
:101CC00022D0504A93423AD04F4A934251D04F4A81
:101CD000934279D00CB070BD002301934C4B1A6B2A
:101CE00042F010021A631B6B03F010030193019B77
:101CF0004FF4D44307930223089301230B9307A9BE
:101D0000444803F0FDF9E5E700230293404B1A6BCA
:101D100042F008021A631B6B03F008030293029B54
:101D20004FF4804307930223089301220992032270
:101D30000A920B9307A9384803F0E2F9CAE7002397
:101D40000393334B1A6B42F080021A631B6B03F050
:101D500080030393039B4FF4E053079302230893FC
:101D6000012209920A930B9307A92C4803F0C8F9A2
:101D7000B0E700240494264B1A6B42F480721A6375
:101D80001A6B02F480720492049A05941A6B42F062
:101D900004021A631B6B03F004030593059BC02325
:101DA00007930226089603250B9507A91C4803F004
:101DB000A7F940230793089609940A940B9507A95D
:101DC000184803F09DF985E700230693104B1A6B22
:101DD00042F020021A631B6B03F020030693069B5C
:101DE0004023079302230893012209920A930323B5
:101DF0000B9307A90C4803F083F96BE7000001403F
:101E000000080040000C0040000401400044014074
:101E10000038024000100240000C0240001C02404A
:101E200000200240000802400014024010B596B0A5
:101E300000241294139414941594109411940994FA
:101E40000A940B940C940D940E940F942022214626
:101E500001A810F057FD3B483B4B0360A7234360AC
:101E6000846044F61F63C36004614461846106F0CA
:101E70009DF900284BD14FF48053129312A9314899
:101E800006F0FAFA002845D12E4806F0E7F90028B6
:101E900043D100231093119310A92A4806F0FCFBAC
:101EA00000283DD16023099300220A920B920C92E4
:101EB0000D920E920F9209A9224806F062FA0028AC
:101EC00031D1042209A91F4806F05BFA70BB082231
:101ED00009A91C4806F055FA58BB0C2209A9194853
:101EE00006F04FFA40BB002301930293039304933F
:101EF00005934FF400520692089301A9114806F089
:101F000011FCE0B90F48FFF7CDFE16B010BDFFF78A
:101F100025F8B0E7FFF722F8B6E7FFF71FF8B8E7B4
:101F2000FFF71CF8BEE7FFF719F8CAE7FFF716F846
:101F3000CDE7FFF713F8D0E7FFF710F8D3E7FFF787
:101F40000DF8DFE7940D00200000014000B58FB0D0
:101F500000230A930B930C930D9308930993019319
:101F60000293039304930593069307932148224A0F
:101F70000260A722426083604FF6FF72C260036175
:101F8000836106F013F928BB4FF480530A930AA922
:101F9000184806F071FA00BB164806F05FF9F8B968
:101FA00000230893099308A9124806F075FBD0B9DD
:101FB000602301930023029303930593082201A950
:101FC0000C4806F0DEF988B90A48FFF76BFE0FB03F
:101FD0005DF804FBFEF7C2FFD6E7FEF7BFFFDBE7C5
:101FE000FEF7BCFFDCE7FEF7B9FFE1E7FEF7B6FF5F
:101FF000EAE700BF4C0D00200008004000B58FB09C
:1020000000230A930B930C930D9308930993019368
:102010000293039304930593069307932A482B4A4C
:102020000260436083604FF6FF72C26003618361A8
:1020300006F0BCF8002831D14FF480530A930AA966
:10204000214806F019FA60BB1F4806F007F958BB93
:1020500000230893099308A91B4806F01DFB30BB19
:1020600060230193002202920392059201A916486F
:1020700006F087F9F0B904220DEB0201124806F0D0
:1020800080F9D0B9082201A90F4806F07AF9B8B949
:102090000D48FFF707FE0FB05DF804FBFEF75EFF8B
:1020A000CAE7FEF75BFFCFE7FEF758FFD0E7FEF782
:1020B00055FFD5E7FEF752FFDDE7FEF74FFFE1E7FB
:1020C000FEF74CFFE4E700BF040D0020000C0040C9
:1020D00010B596B00024129413941494159410948F
:1020E000119409940A940B940C940D940E940F94EB
:1020F0002022214601A810F005FC3648364B03602B
:10210000A7234360846044F61F63C3600461446195
:10211000846106F04BF8002843D14FF480531293AA
:1021200012A92C4806F0A8F900283DD1294806F04C
:1021300069F800283BD100231093119310A925487A
:1021400006F0AAFA002835D1002209920A920B92D1
:102150000C920D920E920F9209A91E4806F0E2F819
:1021600058BB042209A91B4806F0DCF840BB082232
:1021700009A9184806F0D6F828BB0023019302935A
:102180000393049305934FF400520692089301A918
:10219000104806F0C7FAC8B90E48FFF783FD16B01D
:1021A00010BDFEF7DBFEB8E7FEF7D8FEBEE7FEF790
:1021B000D5FEC0E7FEF7D2FEC6E7FEF7CFFED0E7BA
:1021C000FEF7CCFED3E7FEF7C9FED6E7FEF7C6FE64
:1021D000E2E700BFBC0C00200004014000B589B05C
:1021E00000230193029303930493059306930793AB
:1021F0001548164A0260A7224260836041F2873286
:10220000C2600361836105F0D1FFA0B90E4806F0FA
:1022100025F898B960230193002202920392059257
:1022200001A9094806F0ADF858B90748FFF73AFD8B
:1022300009B05DF804FBFEF791FEE7E7FEF78EFEBE
:10224000E8E7FEF78BFEF0E7740C00200044014045
:1022500008B50948094B036000238360C36003612C
:102260000C2242618361C36106F0C0FB00B908BD66
:10227000FEF774FEFBE700BF441000200010014091
:1022800008B50C480C4B03600C4B43604FF4805373
:1022900083600023C3604FF4806202610C224261BC
:1022A0008361C36106F0A2FB00B908BDFEF756FECC
:1022B000FBE700BF0010002000480040A08601009E
:1022C00008B50A480A4B03604FF4E133436000232A
:1022D0008360C36003610C2242618361C36106F0C5
:1022E00085FB00B908BDFEF739FEFBE7BC0F0020F7
:1022F000001401402DE9F0418CB0044600230793FF
:10230000089309930A930B9303689D4A93420AD05A
:102310009C4A934200F082809B4A934200F0C38023
:102320000CB0BDE8F08100250095984B5A6C42F046
:1023300010025A645A6C02F010020092009A019541
:102340001A6B42F002021A631A6B02F00202019247
:10235000019A02951A6B42F001021A631B6B03F09B
:1023600001030293029B802307934FF00208CDF8EC
:10237000208003270A9707260B9607A9844802F0B6
:10238000BFFE4FF400730793CDF8208009950A979C
:102390000B9607A97F4802F0B3FE7F487F4B03608E
:1023A0004FF00063436040238360C5604FF4806357
:1023B000036145618561C5614FF440330362456245
:1023C00003F024F820BB744B63639C637448754B23
:1023D00003604FF00063436000238360C3604FF4E9
:1023E0008062026143618361C3614FF440320262E3
:1023F000436203F00BF870B9694BA3639C6300223E
:102400000521252003F032FA252003F03FFA87E763
:10241000FEF7A4FDD7E7FEF7A1FDEDE70025039544
:102420005A4B1A6C42F480221A641A6C02F480220D
:102430000392039A04951A6B42F004021A631B6B11
:1024400003F004030493049B4FF4406307930223B7
:10245000089303230A9307230B9307A9524802F01A
:102460004FFE5248524B03604FF00063436085605B
:10247000C5604FF48063036145618561C561056294
:10248000456202F0C3FF58B9484BA3639C63002226
:102490000521272003F0EAF9272003F0F7F93FE7A9
:1024A000FEF75CFDF0E700250595384B5A6C42F0CD
:1024B00020025A645A6C02F020020592059A069591
:1024C0001A6B42F040021A631B6B03F04003069341
:1024D000069B4FF4844307930223089303260A962E
:1024E00008230B9307A9334802F00AFE3248334B06
:1024F00003604FF0206343608560C5604FF48063E4
:10250000036145618561C5614FF4003303620423B3
:1025100043628662C562056302F078FF50BB264BBA
:10252000A3639C632648274B03604FF020634360FE
:10253000402383600023C3604FF4806202614361E3
:102540008361C3614FF400320262042242620322BB
:102550008262C362036302F059FF70B9184B636370
:102560009C6300220521472003F080F9472003F0F7
:102570008DF9D5E6FEF7F2FCD1E7FEF7EFFCEDE7CB
:1025800000100140004800400014014000380240A3
:1025900000040240000002405C0F0020B8640240CA
:1025A000FC0E002088640240000802409C0E0020BF
:1025B00028600240001802403C0E002040640240A7
:1025C000DC0D0020A064024008B500220F4910482D
:1025D00007F096FD70B90F490D4807F0A8FD60B9E6
:1025E0000D490B4808F08EFD50B9094807F0BFFDB2
:1025F00048B908BDFEF7B2FCEDE7FEF7AFFCEFE728
:10260000FEF7ACFCF1E7FEF7A9FCF2E7340000208E
:1026100088100020B80000205000002070B52DED7B
:10262000028B88B0002303930493059306930793CA
:102630000368B3F1A04F03D008B0BDEC028B70BDAE
:1026400000250195224C236B43F001032363236B88
:1026500003F001030193019B4FF4E0530393022322
:102660000493032306930A2307931A4E03A93046C3
:1026700002F046FD636B43F0800363630295636C75
:1026800043F480436364636C03F480430293029BCE
:102690002A460521432003F0E9F8432003F0F6F829
:1026A0002A464FF48051304602F020FE9FED0A8A00
:1026B000B0EE480A08F0ECFE01224FF4805130469B
:1026C00002F014FEB0EE480A08F0E2FEB4E700BFE4
:1026D0000038024000000240CDCCCC3D08B500F2ED
:1026E000C441D0F8080507F058FD08BD08B501EB56
:1026F000C10300EB8303D3F88C22D0F8080507F060
:1027000019FE08BD08B501EBC10300EB8303DA6CC9
:10271000D0F8080507F070FE08BD08B5D0F8080528
:1027200007F0B3FD08BD10B50446C3683BB1022BEA
:1027300001D1012104E0FEF711FC012100E000219C
:10274000D4F8080507F087FDD4F8080507F051FD17
:1027500010BD000010B50446D0F8080507F07EFD56
:102760002268D2F8003E43F00103C2F8003E236A1B
:1027700023B1034A136943F00603136110BD00BF80
:1027800000ED00E008B5D0F8080507F071FD08BDC0
:1027900008B5D0F8080507F0A0FD08BD08B5D0F8C9
:1027A000080507F083FD08BD08B5D0F8080507F057
:1027B000ABFD08BD08B5D0F8080507F0A7FD08BDBA
:1027C00002780AB10020704710B503461548C0F8DA
:1027D0000835C3F8C8024FF0A043036004234360E8
:1027E0000222C260002303618261C361036243620B
:1027F000C362036300F040FB80B90A4C802120468D
:1028000001F038F940220021204601F00DF9802224
:102810000121204601F008F9002010BDFEF79EFBC3
:10282000EBE700BF84150020D0F8C83211F0800F0C
:1028300008D101F07F0101EBC10103EB810393F8A3
:102840007E02704701F07F0101EBC10103EB8103C0
:1028500093F83E00704708B5D0F8C80200F02FFD8D
:1028600008BD00000048704764130020704703282B
:1028700005D8DFE800F005040205012070470320B9
:10288000704708B5D0F8C80200F08DFBFFF7EFFFE6
:1028900008BD08B594461A466346D0F8C80200F051
:1028A00061FCFFF7E4FF08BD08B5D0F8C80200F0EE
:1028B0009EFCFFF7DCFF08BD08B5D0F8C80200F0A9
:1028C00036FDFFF7D4FF08BD08B5D0F8C80200F008
:1028D00072FDFFF7CCFF08BD08B5D0F8C80200F0C4
:1028E0002DFCFFF7C4FF08BD08B5D0F8C80200F002
:1028F000EFFCFFF7BCFF08BD08B5D0F8C80200F038
:10290000AFFCFFF7B4FF08BD12230B8000487047EF
:102910002000002004230B80004870471C0000208A
:10292000002393421ED200B510E00CF1370C01F8E1
:1029300013C000014FEA430C0CF1010C4FF0000EE4
:1029400001F80CE00133DBB2934209D24FEA107C6C
:10295000B0F1204FE9D20CF1300C01F813C0E8E7D8
:102960005DF804FB7047000038B50B4BD3F8100A34
:10297000D3F8144AD3F8183AC01800D138BD074D1F
:1029800008222946FFF7CCFF042205F1100120465A
:10299000FFF7C6FFF2E700BF0070FF1F0200002034
:1029A00008B51A230B80FFF7DFFF014808BD00BF01
:1029B0000000002008B50A4628B90549054808F076
:1029C00020F9034808BD0249024808F01AF9F8E75F
:1029D000901A0020084C010810B50A46034C214605
:1029E000034808F00EF9204610BD00BF901A0020E1
:1029F0001C4C010808B50A4628B90549054808F0E5
:102A000000F9034808BD0249024808F0FAF8F8E75F
:102A1000901A00202C4C010808B50A4628B905492F
:102A2000054808F0EEF8034808BD0249024808F0DE
:102A3000E8F8F8E7901A0020384C010800207047A9
:102A40000020704708B5034B1B680BB108889847F6
:102A5000002008BD942C002038B50C46074D0146D7
:102A6000284608F068FB284608F08CFB044B1B68DE
:102A70000BB120889847002038BD00BF8810002087
:102A8000902C002010B5064C00220649204608F084
:102A900044FB0549204608F04EFB002010BD00BF56
:102AA00088100020901C002090240020094BD3F8AF
:102AB000BC32D3F814320BB10120704710B5054C6D
:102AC0000A460146204608F028FB204608F03FFB56
:102AD00010BD00BF88100020024B1860024B196027
:102AE00002487047942C0020902C00209024002055
:102AF000FEE770477047FDE7FEE7FEE7FEE7704739
:102B000008B502F02DFA08BD08B5082002F0F4FB64
:102B100008BD08B5102002F0EFFB08BD08B502485B
:102B200002F06CFD08BD00BF9C0E002008B50248F5
:102B300002F064FD08BD00BFCC09002008B50248C2
:102B400003F05EFB08BD00BF2809002008B502485D
:102B500003F056FB08BD00BF2809002008B520205F
:102B600002F0CAFB08BD000008B5024804F05CFC96
:102B700008BD00BF800A002008B5024804F024FD0B
:102B800008BD00BF800A002008B5024805F042F8E1
:102B900008BD00BF1C0C002008B5024805F03AF83B
:102BA00008BD00BFC40B002008B5024806F010F9AC
:102BB00008BD00BF4410002008B5024806F008F91F
:102BC00008BD00BF0010002008B5034805F0CDF98E
:102BD000024805F0CAF908BDBC0C0020982C002062
:102BE00008B5024802F00AFD08BD00BF6C090020CC
:102BF00008B5024802F002FD08BD00BF640B0020CA
:102C000008B5024802F0FAFC08BD00BF3C0E0020E7
:102C100008B5024802F0F2FC08BD00BF040B00201A
:102C200008B5024803F0ECFA08BD00BF0009002017
:102C300008B5024803F0E4FA08BD00BF000900200F
:102C400008B5024800F00CFC08BD00BF8415002048
:102C500008B5024802F0D2FC08BD00BFFC0E0020FF
:102C600008B5024802F0CAFC08BD00BFDC0D002018
:102C700008B5024802F0C2FC08BD00BF5C0F00208E
:102C800008B5024806F0A4F808BD00BFBC0F00203C
:102C900008B5024804F0C8FB08BD00BF2C0A00209C
:102CA00008B5024804F090FC08BD00BF2C0A0020C3
:102CB00010B582B000240094114B5A6C42F480424B
:102CC0005A645A6C02F480420092009A01941A6C81
:102CD00042F080521A641B6C03F080530193019BF5
:102CE00022460F216FF0010002F0C0FD22460621AE
:102CF000042002F0BBFD042002F0C8FD02B010BDAC
:102D00000038024030B589B0044600230193214BBE
:102D10001A6C42F480721A641B6C03F48073019382
:102D2000019B02A903A802F00BF8069BCBB901F0A6
:102D3000E7FF0346184AA2FB03239B0C013B1748FD
:102D4000174A026040F2E732C26043600023036129
:102D50008360836105F02AFA054630B1284609B040
:102D600030BD01F0CDFF4300E4E70C4805F0B4F8B6
:102D700005460028F2D12D2002F088FD0F2C01D944
:102D80000125EBE7002221462D2002F06FFD054BC7
:102D90001C60E3E70038024083DE1B43982C0020D0
:102DA00000200040680000202DE9F04383B0D0F8F7
:102DB000008001EBC10300EB8303DA6D5B6D9A4287
:102DC00054D807460C469B1A01EBC10200EB820265
:102DD000926C9A4200D31A4602F103094FEA99090C
:102DE00015E006F103094FEA990904EBC40507EB66
:102DF0008505E96C3B7C0093B3B2E2B2404601F03A
:102E000002FAEB6C3344EB64EB6D3344EB6508EB97
:102E1000441303F510639B699BB24B4512D304EB3B
:102E2000C40307EB8303DA6D5B6D9A420AD24BB1A0
:102E30009B1A04EBC40207EB8202966C9E42D0D32D
:102E40001E46CEE704EBC40307EB83077A6DFB6DE8
:102E50009A420FD804F00F040122A240D8F8343867
:102E600023EA0203C8F83438002000E0012003B050
:102E7000BDE8F0830020FAE770B58AB0002800F0C2
:102E800090800546046890F8BD343BB3032385F871
:102E9000BD34E36B13F4807F01D100232B612868DC
:102EA00000F0D4FE2C4654F8106BEC460FCCACE886
:102EB0000F000FCCACE80F0094E803008CE803008F
:102EC0002B1D0ECB304600F003FE044658B1022302
:102ED00085F8BD34012420460AB070BD80F8BC34AA
:102EE000FFF79CFBD2E70021286801F094FB234602
:102EF00016E003EBC30205EB8202012182F83D10CC
:102F000082F83C30A2F84430002182F840109164ED
:102F1000D16403EBC30205EB820251650133DBB2DE
:102F200069688B42E5D316E004EBC40305EB830329
:102F3000002283F87D2283F87C4283F88022C3F844
:102F40008822C3F88C2204EBC40305EB8303C3F887
:102F500094220134E4B2A142E6D82C4654F8106B16
:102F6000EC460FCCACE80F000FCCACE80F0094E8B7
:102F700003008CE803002B1D0ECB304600F0C2FE90
:102F8000044620B1022385F8BD340124A3E70023C1
:102F900085F83830012385F8BD34286801F0FAFA45
:102FA00099E7012497E7026890F8BC34012B19D007
:102FB00010B50446012380F8BC34836A012B09D084
:102FC000206800F03DFE206801F0D6FA002084F869
:102FD000BC0410BD8369012BF2D0936B43F48033A2
:102FE0009363EDE70220704770B504460D46006814
:102FF000066C00EB411303F530639A6821690129DF
:1030000011D038498E4256D03DB905EBC50304EBCB
:103010008303D3F89432002B5ED0E9B22046FFF749
:1030200065FB002070BD12F0080F09D02E498E42BA
:10303000F7D912F4004FF4D04FF400429A60F0E751
:1030400012F0200F02D020229A60EAE712F0280F37
:10305000E7D125498E4206D912F4004F03D04FF430
:1030600000429A60DDE705EBC50204EB8202D2F86C
:1030700098121B69C3F31203CB1AC2F89C327DB9B4
:1030800005EBC50204EB8202D2F894226AB105EB8B
:10309000C50204EB8202D2F88C121944C2F88C12D9
:1030A000E9B22046FFF722FBBBE704F2C44201214C
:1030B00001F0F0FAF4E712F4004F03D04FF40042AD
:1030C0009A60AEE712F0200F01D020229A60E9B298
:1030D0002046FFF70BFBA4E704F2C442002101F0F5
:1030E000D9FA9AE70A31544F0A30544F38B504469A
:1030F00003681D6C03EB4113D3F8081B0E4A95427D
:1031000007D903F5306311F4004F02D04FF40042A9
:103110009A602046FFF7E2FA074B9D4202D92369E5
:10312000012B01D0002038BD04F2C44201212068E7
:1031300001F0B0FAF6E700BF0A30544F90F8BC3403
:10314000012B0DD010B50446012380F8BC3480F863
:103150003810006801F000FA002084F8BC0410BDAB
:103160000220704738B505468C4611F0800F29D1F2
:1031700001F00F0E0EEBCE04A40004F51E740444FF
:10318000211D0EEBCE0E00EB8E0E00208EF87D0280
:103190000CF00F0C81F800C0CA600B714A780AB1BC
:1031A000A1F808C0022B1DD095F8BC34012B1CD00F
:1031B000012385F8BC34286800F07DFE002085F8E6
:1031C000BC0438BD01F00F0000EBC00189003831AC
:1031D0002944043100EBC00005EB8000012480F895
:1031E0003D40D5E700234B71DEE70220E9E710B54B
:1031F00004460A4611F0800F20D101F00F0000EBC9
:10320000C0039B0003F51E732344191D00EBC0008F
:1032100004EB8000002380F87D3202F00F020A7078
:1032200094F8BC34012B19D0012384F8BC342068F5
:1032300000F08EFE002084F8BC0410BD01F00F00E9
:1032400000EBC0039B0038332344191D00EBC00082
:1032500004EB8000012380F83D30DEE70220ECE73C
:1032600010B501F00F0404EBC401890001F51E71D3
:103270000144043104EBC40C00EB8C0CCCF88C2220
:10328000CCF894320023CCF89C328CF87D328CF848
:103290007C420369012B06D064B9DAB2006800F001
:1032A000C7FE002010BD04EBC40C00EB8C0CCCF866
:1032B0009022F1E7DAB2006800F0BCFFF1E701F01C
:1032C0000F0101EBC10100EB8100D0F89C027047B7
:1032D00010B501F00F0404EBC4018900383101443A
:1032E000043104EBC40C00EB8C0CCCF84C20CCF873
:1032F00054300023CCF85C3001238CF83D308CF83E
:103300003C400369012B06D064B9DAB2006800F0D2
:103310008FFE002010BD04EBC40C00EB8C0CCCF82D
:103320005020F1E7DAB2006800F084FFF1E738B529
:1033300001F00F054268954239D804460B4611F05A
:10334000800F1FD101EBC101890001F51E710144FD
:10335000043103EBC30300EB8303002283F87D22D7
:1033600001238B700D7094F8BC34012B21D0012304
:1033700084F8BC34206801F094F88DB1002084F802
:10338000BC0438BD05EBC501890038310144043166
:1033900005EBC50300EB8303012283F83D20DFE743
:1033A00004F2C442217C206801F074F9E6E70120B0
:1033B000E7E70220E5E701F00F034268934231D8C6
:1033C00010B5044611F0800F1ED103EBC301890034
:1033D00001F51E710144043103EBC30200EB8202CC
:1033E000002082F87D0200228A700B7094F8BC34B1
:1033F000012B19D0012384F8BC34206801F07EF839
:10340000002084F8BC0410BD03EBC30189003831EF
:103410000144043103EBC30200EB8202012082F875
:103420003D00E0E7012070470220ECE708B511F00D
:10343000800F0CD101F00F0101EBC101890001F5F2
:103440001E7101440431006800F07EFE08BD01F0E9
:103450000F0101EBC1018900383101440431F2E769
:103460002DE9F04F83B004460568284601F0CFF8F7
:1034700010B103B0BDE8F08F0646206801F098F85F
:103480000028F6D005F50067BB68C3F30D23C4F828
:10349000FC34206801F08CF810F0020F04D0226890
:1034A000536903F002035361206801F081F810F0C2
:1034B000100F15D02268936923F010039361D5F89B
:1034C000208008F00F0908F4F013B3F5802F4CD0DA
:1034D000B3F5402F6FD02268936943F010039361D6
:1034E000206801F065F810F4002F76D1206801F013
:1034F0005FF810F4802F40F0E080206801F058F869
:103500000028C0F26381206801F052F810F4006FC7
:1035100009D0BB6813F0010F40F070812268536935
:1035200003F400635361206801F042F810F4805FF7
:1035300040F06881206801F03BF810F4005F40F033
:10354000B581206801F034F810F0080F40F0C68112
:10355000206801F02DF810F0800F00F0D981AB69E0
:1035600023F08003AB610126C2E147F6F07318EA4D
:10357000030FB0D04FEA181A4FEAC903019309EBC1
:10358000C90B04EB8B0BC8F30A12DBF88C1228462C
:1035900000F064FFDBF88C32CAF30A0A5344CBF81C
:1035A0008C32DBF89C32019A4A4404EB8202534489
:1035B000C2F89C328FE7082204F2C441284600F08A
:1035C0004DFF09EBC90304EB8303D3F89C22C8F336
:1035D0000A184244C3F89C227DE7206800F0ECFF03
:1035E0008046B14635E005EB49130122C3F8082BAC
:1035F00049462046FFF7F8FC3CE005EB491308225A
:10360000C3F8082B49462046FFF770FD35E009EB6B
:10361000C90304EB830393F87F32012B41D005EB00
:1036200049130222C3F8082B1AF0200F04D005EB2F
:1036300049132022C3F8082B1AF4005F05D005EBCC
:1036400049134FF40052C3F8082B09F101094FEA5E
:103650005808B8F1000F3FF449AF18F0010FF4D04B
:103660005FFA89FB5946206800F0B6FF824610F0E9
:10367000010FB8D11AF0080FBFD11AF0100F04D003
:1036800005EB49131022C3F8082B1AF0020FCBD018
:103690006B6913F0800FBAD07B6843F480637B6062
:1036A000B5E709EBC90304EB8303002283F87F220B
:1036B00059462046FFF76CF8B1E7206800F084FF18
:1036C0008046B14625E059462046FFF71BF81AF020
:1036D000080F04D005EB49130822C3F808291AF093
:1036E000100F04D005EB49131022C3F808291AF073
:1036F000400F04D005EB49134022C3F808291AF003
:10370000020F40D11AF0800F5BD109F101094FEA95
:103710005808B8F1000F3FF4F0AE18F0010FF4D0E4
:103720005FFA89FB5946206800F05FFF824610F07F
:10373000010FCCD009F00F02012101FA02F27B6BDC
:1037400023EA02037B6305EB4913C3F808192369D5
:103750008B42B8D109EBC90304EB8303DA6C996C93
:103760000A44DA64B9F1000FADD109EBC90304EBE7
:1037700083035B6D002BA6D104F2C44201212068B3
:1037800000F088FF9FE74946284600F065FA09EBFC
:10379000C90304EB830393F83F30012B05D005EBFD
:1037A00049130222C3F80829ACE709EBC90304EB6B
:1037B0008303002283F83F2059462046FEF7EEFFA0
:1037C000EDE749462046FFF7EFFA9EE77B6823F0D6
:1037D00001037B6094F8F434012B08D02046FEF7F7
:1037E000D1FF2268536903F0004353618BE6002147
:1037F00084F8F414204600F041F9F2E72046FEF781
:10380000A9FF8BE67B6823F001037B601021206811
:1038100000F022FA1AE005EB46134FF67F31C3F8A9
:103820000819D3F8002922F40012C3F80029C3F8BC
:10383000081BD3F8002B22F40012C3F8002BD3F896
:10384000002B42F00062C3F8002B01366368B342DC
:10385000E1D8FB6943F00113FB61236BDBB1D7F8BF
:10386000843043F00B03C7F884307B6C43F00B03C8
:103870007B64D5F8003823F4FE63C5F8003804F201
:10388000C442217C206800F005FF2268536903F4DC
:10389000805353614EE67B6943F4005343F02B039E
:1038A0007B613B6943F00B033B61E2E7206800F07A
:1038B000E3FE206800F0EEFAE060266801F01AFAF4
:1038C0000146227B304600F049F92046FEF72BFFE7
:1038D0002268536903F40053536132E62046FEF731
:1038E0001CFF2268536903F00803536130E6013678
:1038F0006368B3420CD906EBC60304EB830393F869
:103900007F32012BF3D1F1B22046FFF78FFDEEE7B6
:10391000206800F04DFE10F4801F27D1206800F0D1
:1039200047FE10F4001F5BD0012328E001366368D6
:10393000B3421DD905EB4613D3F8002906EBC603A5
:1039400004EB830393F84030012BEFD1002AEDDA2A
:1039500006EBC60304EB8303012283F83F2066F0E5
:103960007F01C9B22046FFF761FDDFE70126DEE7F0
:103970002268536903F480135361CFE7013362680F
:103980009A4228D905EB4312D2F8001B03EBC3027D
:1039900004EB820292F88022012AEFD10029EDDAAD
:1039A00001F48031D4F8FC2402F001029142E5D107
:1039B00003EBC30204EB8202012182F87F12AA69A1
:1039C00042F08002AA616A6912F0800FD6D17B684A
:1039D00043F400737B602268536903F4001353615E
:1039E000206800F0E5FD10F0804F10D1206800F055
:1039F000DFFD10F0040F3FF43CAD23685D6815F067
:103A0000040F0DD1226853682B43536031E52046E3
:103A1000FEF7CAFE2268536903F080435361E5E76D
:103A20002046FEF7C7FEEDE710B40468606A31B9BE
:103A300040EA0240A06200205DF8044B70478C46CB
:103A4000A36A00EB1340002308E003F1400104EBFC
:103A50008101496800EB11400133DBB20CF1FF3109
:103A60008B42F2D340EA02400CF13F0104EB8104A7
:103A70006060E0E70368596200207047704700000B
:103A800082B000230193019B01330193019A0F4BF4
:103A90009A4215D80369002BF5DA002301930369D4
:103AA00043F001030361019B01330193019A074B2A
:103AB0009A4208D8036913F0010FF4D1002000E006
:103AC000032002B070470320FBE700BF400D030056
:103AD00084B010B5044603A880E80E00089B012BB3
:103AE0001FD1A36B23F48033A363E36823F484031F
:103AF00023F04003E360E36823F44013E3600F9B8B
:103B0000012B09D02046FFF7BBFF069B012B1BD0E2
:103B1000BDE8104004B07047E36843F48013E360ED
:103B2000F0E7E36843F04003E3602046FFF7A8FFB7
:103B30000C9B23B9A36B43F48033A363E5E7A36B2A
:103B400023F48033A363E0E7A36843F00603A36094
:103B5000A36843F02003A360DAE70000022A0AD03A
:103B60000922C36823F47053C360C36843EA822305
:103B7000C36000207047234B0B44234A93422FD944
:103B8000224B0B44224A93422CD9A1F57403A3F58E
:103B90001053204A934227D9A1F18373A3F5E74339
:103BA0001D4A934222D31D4B0B441D4A93421FD9F9
:103BB0001C4B0B441C4A93421CD31C4B0B441C4A09
:103BC000934219D3A1F1B773A3F55853194A9342FD
:103BD00014D3194B0B44194A934211D20722C0E760
:103BE0000F22BEE70E22BCE70D22BAE70C22B8E78F
:103BF0000B22B6E70A22B4E70922B2E70822B0E7AF
:103C00000622AEE7405327FFFF340C00401E1BFF87
:103C10003F420F007F4F120020D6130060B6E5FE32
:103C20005FE3160000D3CEFE40771B00C05BB3FEFF
:103C3000C091210020753800E05459FEE09C4100FD
:103C4000836843F00103836000207047836823F09A
:103C5000010383600020704782B000230193019B21
:103C600001330193019A0F4B9A4215D80369002B37
:103C7000F5DA00230193890141F020010161019BE4
:103C800001330193019A074B9A4208D8036913F054
:103C9000200FF4D1002000E0032002B07047032081
:103CA000FBE700BF400D030082B000230193019B9E
:103CB00001330193019A0E4B9A4213D80369002BEA
:103CC000F5DA0023019310230361019B0133019373
:103CD000019A074B9A4208D8036913F0100FF4D1E8
:103CE000002000E0032002B070470320FBE700BF84
:103CF000400D0300D0F800381943C0F80018002028
:103D00007047000084B02DE9F041044607A880E820
:103D10000E00002306E003F1400204EB82020021C2
:103D2000516001330E2BF6D9119F27BBD4F804380C
:103D300043F00203C4F80438A36B43F40013A363F5
:103D4000A36B23F40023A363A36B23F48023A36357
:103D50000023C4F8003E04F50065D4F80038C4F828
:103D600000380C9B012B14D1099B6BB90021204614
:103D7000FFF7C0FF11E0A36B23F40013A363A36B51
:103D800043F40023A363E3E701212046FFF7B2FFDA
:103D900003E003212046FFF7ADFF10212046FFF787
:103DA0005BFF804608B14FF001082046FFF77CFF1B
:103DB00008B14FF0010800232B616B61EB610AE051
:103DC000C3B94FF00060C2F8000900220A614FF643
:103DD0007F328A6001330799994210D904EB43126C
:103DE00002F51061D2F800090028E9DB0020C2F8D2
:103DF0000009EAE74FF09040C2F80009E5E7002328
:103E00000AE0C3B14FF0904CC2F800CB002202612F
:103E10004FF67F3282600133994211D904EB43128D
:103E200002F53060D2F8006B002EEADB4FF0000C98
:103E3000C2F800CBEAE74FF0006CC2F800CBE5E730
:103E40002B6923F480732B610023A3616FF08043FF
:103E500063610A9B1BB9A36943F01003A361A269C4
:103E60000B4B1343A3610D9B1BB1A36943F00803E4
:103E7000A361012F04D04046BDE8F04104B0704773
:103E8000A36943F0804343F00403A361F3E700BF59
:103E900000383C80D0F8083803F00603022B04D029
:103EA000062B04D02BB90020704702207047022057
:103EB00070470F20704710B591F800C04B78012B68
:103EC00023D000F5006ED0F81C380CF00F0401224E
:103ED000A24043EA0243C0F81C3800EB4C10D0F873
:103EE000003B13F4004F0ED1D0F8003BCA68C2F378
:103EF0000A02097942EA8142134343F0805343F4B2
:103F00000043C0F8003B002010BDD0F81C280CF086
:103F10000F0E03FA0EF39BB21343C0F81C3800EBEC
:103F20004C10D0F8003913F4004FECD1D0F8003920
:103F3000CA68C2F30A02097942EA814242EA8C5213
:103F4000134343F0805343F40043C0F80039DAE7E9
:103F500030B40B784A78012A26D000EB4313D3F80B
:103F6000002B002A52DBD0F83C480A7802F00F02FE
:103F70004FF0010C0CFA02F224EA0242C0F83C288D
:103F8000D0F81C28097801F00F010CFA01FC22EA94
:103F90000C42C0F81C28D3F8001B234A0A40C3F87F
:103FA000002B002030BC704700EB4313D3F80029EE
:103FB000002A1EDBD0F83C580A7802F00F020124D8
:103FC00004FA02F292B225EA0202C0F83C28D0F8C4
:103FD0001C28097801F00F018C40A4B222EA0402E7
:103FE000C0F81C28D3F80019104A0A40C3F8002969
:103FF000D7E7D3F8002942F00062C3F80029D3F8CC
:10400000002942F08042C3F80029D3E7D3F8002BFF
:1040100042F00062C3F8002BD3F8002B42F080423C
:10402000C3F8002B9FE700BF0078F3EF007833EC74
:1040300070B40B784C78012C27D000EB431000F5BE
:1040400030631C696FF312041C611C696FF3DC445C
:104050001C618C690CB1CC688C61CC68CC611C692A
:1040600044F400241C611C69CD69C5F3120C44EAB8
:104070000C041C61012A62D0D0F8003B43F00443D9
:10408000C0F8003B002070BC70478C695CBB00EB43
:104090004314D4F810596FF3DC45C4F81059D4F820
:1040A000105945F40025C4F81059D4F810596FF38D
:1040B0001205C4F81059012A32D000EB4313D3F88B
:1040C000002942F00442C3F800298B69002BD9D0A3
:1040D000D0F83438097801F00F0101228A401343E7
:1040E000C0F83438CEE700EB431404F510642569BA
:1040F0006FF31205256125696FF3DC452561CD68F5
:104100008E69AE4200D98D61256945F4002525618F
:1041100025698E69C6F3120C45EA0C052561CAE7CC
:104120004A691AB100EB4311C1F8142900EB43139B
:10413000D3F8002942F00442C3F80029A2E70A6933
:10414000002A99D05A6197E710B483B00246002341
:104150000193487801280BD00B7802EB4313D3F876
:10416000000B00282DDB002003B05DF8044B7047E6
:104170000B7802EB4313D3F80049002C01DB00203D
:10418000F2E7D3F8004944F00064C3F800490B7823
:1041900002EB4313D3F8004944F08044C3F80049CC
:1041A000019B01330193019C42F210739C42DBD8C6
:1041B0000B7802EB4313D3F80039002BF0DB00201F
:1041C000D2E7D3F8000B40F00060C3F8000B0B7887
:1041D00002EB4313D3F8000B40F08040C3F8000B10
:1041E000019B01330193019842F21073984208D861
:1041F0000B7802EB4313D3F8003B002BF0DB0020DD
:10420000B2E70120B0E710B59DF8084084B9033348
:104210004FEA930E4FF0000C08E000EB023303F579
:10422000805351F8044B1C600CF1010CF445F4D39D
:10423000002010BDF0B583B00B784C78012C31D044
:1042400000EB431303F5306CDCF810406FF31204FD
:10425000CCF81040DCF810406FF3DC44CCF8104090
:104260008C69002C40F0C380DCF81040CD68C5F3A9
:1042700012052C43CCF81040DCF8104044F4002424
:10428000CCF81040012A00F0CC800A79012A00F015
:10429000CF80D3F8002B42F00442C3F8002B00205B
:1042A00003B0F0BD8C6974BB00EB4314D4F8105913
:1042B0006FF3DC45C4F81059D4F8105945F40025C3
:1042C000C4F81059D4F810596FF31205C4F81059F6
:1042D000012A4AD000EB4313D3F8004944F00444C8
:1042E000C3F800490C79012C68D08B69002BD6D01B
:1042F000D0F83438097801F00F0101228A401343C5
:10430000C0F83438CBE700EB4314D4F810596FF3FE
:104310001205C4F81059D4F810596FF3DC45C4F8ED
:104320001059D4F810698D69CF683D44013DB5FB43
:10433000F7F5494F07EAC5453543C4F81059D4F895
:1043400010598E69C6F312063543C4F8105904F5A6
:1043500010640D79012DBBD1256925F0C04525617B
:10436000256945F000552561B2E74A691AB100EBAD
:104370004314C4F814290A79012A08D000EB431326
:10438000D3F8002942F00442C3F8002987E7D0F8A7
:10439000082812F4807F08D100EB4311D1F80029DE
:1043A00042F00052C1F80029E8E700EB4311D1F8D0
:1043B000002942F08052C1F80029DFE7D0F8084810
:1043C00014F4807F0CD1D3F8004944F00054C3F8B2
:1043D000004900920B8B0A780969FFF714FF5EE72A
:1043E000D3F8004944F08054C3F80049F1E7CD68A0
:1043F0002C44013CB4FBF5F4A4B204FB05F5CD61FB
:10440000DCF81050144E06EAC4442C43CCF810409B
:10441000DCF81040CD69C5F312052C43CCF81040F0
:1044200030E70A69002A3FF430AFCCF814202CE7BB
:10443000D0F8082812F4807F06D1D3F8002B42F080
:104440000052C3F8002B24E7D3F8002B42F080522F
:10445000C3F8002B1DE700BF0000F81F10B584460D
:1044600008464FEA920E02F00302002305E00CF525
:104470008051096840F8041B01337345F7D37AB1C2
:104480000CF5805CDCF800400021CBB2DB0024FAA4
:1044900003F300F8013B0131013A92B2002AF4D152
:1044A00010BD0B784A78012A14D000EB4310D0F8E5
:1044B000002B002A06DB2BB1D0F8003B23F0804311
:1044C000C0F8003BD0F8003B43F40013C0F8003BB9
:1044D0000020704700EB4310D0F80029002A06DBCB
:1044E0002BB1D0F8003923F08043C0F80039D0F860
:1044F000003943F40013C0F80039E9E70B784A7833
:10450000012A0ED000EB4310D0F8003B23F4001337
:10451000C0F8003B0B79023BDBB2012B15D9002020
:10452000704700EB4310D0F8003923F40013C0F8B3
:1045300000390B79023BDBB2012BF0D8D0F80039FF
:1045400043F08053C0F80039E9E7D0F8003B43F06E
:104550008053C0F8003BE2E7D0F8003823F4FE6354
:10456000C0F80038D0F80038090101F4FE610B43AF
:10457000C0F8003800207047D0F8003E23F0030355
:10458000C0F8003ED0F8043823F00203C0F8043825
:1045900000207047D0F8003E23F00303C0F8003E2F
:1045A000D0F8043843F00203C0F804380020704704
:1045B0004269806910407047D0F8183800F50060F3
:1045C000C0691840000C7047D0F8183800F500603A
:1045D000C069184080B2704700EB4111D1F8082B38
:1045E00000F50060406910407047D0F81028D0F8FE
:1045F000343801F00F0C23FA0CF3DB01DBB2134368
:1046000000EB411000F51060806818407047406969
:1046100000F00100704738B50546C36823F0C04379
:10462000C360012913D019BBC36843F08043C36042
:104630000024012001F064F901342846FFF7E7FF68
:1046400008B1312CF5D9322C14D0002038BDC36804
:1046500043F00053C3600024012001F051F90134FC
:104660002846FFF7D4FF0128EDD0312CF4D9EAE732
:104670000120EBE70120E9E7D0F800396FF30A03E6
:10468000C0F80039D0F8043843F48073C0F8043817
:104690000020704710B4046C154B9C4203D9D0F82D
:1046A000003B002B16DB0024C0F8104BD0F8104B59
:1046B00044F40024C0F8104BD0F8104B44F0180418
:1046C000C0F8104BD0F8104B44F0C044C0F8104B69
:1046D000012903D000205DF8044B7047C0F8142B6B
:1046E000D0F8003B43F08023C0F8003BF2E700BF66
:1046F0000A30544F002800F0E08170B582B00446C3
:10470000036813F0010F3BD09F4B9B6803F00C0331
:10471000042B2CD09C4B9B6803F00C03082B21D05E
:104720006368B3F5803F4FD0B3F5A02F52D0964BBE
:104730001A6822F480321A601A6822F480221A6001
:104740006368002B50D001F0D5F805468E4B1B68EE
:1047500013F4003F14D101F0CDF8401B6428F5D9C3
:104760000320B1E1884B5B6813F4800FD8D0864BEF
:104770001B6813F4003F03D06368002B00F09F8197
:10478000236813F0020F54D07F4B9B6813F00C0F7B
:104790003ED07D4B9B6803F00C03082B33D0E368BD
:1047A000002B68D0794B01221A6001F0A3F805466E
:1047B000754B1B6813F0020F54D101F09BF8401B9E
:1047C0000228F5D903207FE16F4A136843F4803350
:1047D0001360B5E76C4B1A6842F480221A601A68BD
:1047E00042F480321A60ABE701F084F80546664B6C
:1047F0001B6813F4003FC3D001F07CF8401B642811
:10480000F5D9032060E1604B5B6813F4800FC6D1DB
:104810005D4B1B6813F0020F03D0E368012B40F0DF
:104820005081594A136823F0F803216943EAC10310
:104830001360236813F0080F42D063696BB3534BC6
:104840000122C3F8802E01F055F805464E4B5B6FF0
:1048500013F0020F34D101F04DF8401B0228F5D9B6
:10486000032031E1484A136823F0F803216943EA41
:10487000C1031360DDE7454B00221A6001F03AF8EE
:104880000546414B1B6813F0020FD2D001F032F8FD
:10489000401B0228F5D9032016E13C4B0022C3F847
:1048A000802E01F027F80546374B5B6F13F0020F9F
:1048B00006D001F01FF8401B0228F5D9032003E1C0
:1048C000236813F0040F77D02F4B1B6C13F0805F1D
:1048D00033D1002301932C4B1A6C42F080521A649E
:1048E0001B6C03F080530193019B0125284B1B682F
:1048F00013F4807F23D0A368012B34D0052B38D04C
:10490000214B1A6F22F001021A671A6F22F004027B
:104910001A67A368002B3DD000F0ECFF06461A4B47
:104920001B6F13F0020F46D100F0E4FF801B41F231
:1049300088339842F3D90320C6E00025D6E7144A0D
:10494000136843F48073136000F0D4FF0646104BE5
:104950001B6813F4807FCED100F0CCFF801B0228AF
:10496000F5D90320B0E0084A136F43F00103136741
:10497000CFE7054B1A6F42F004021A671A6F42F034
:1049800001021A67C5E700BF003802400000474235
:104990000070004000F0AEFF0646524B1B6F13F054
:1049A000020F08D000F0A6FF801B41F28833984226
:1049B000F3D9032088E0EDB9A369002B00F08380D0
:1049C000484A926802F00C02082A51D0022B17D0F4
:1049D000454B00221A6600F08DFF0446414B1B68D0
:1049E00013F0007F42D000F085FF001B0228F5D9AC
:1049F000032069E03B4A136C23F080531364DBE728
:104A0000394B00221A6600F075FF0546354B1B68CE
:104A100013F0007F06D000F06DFF401B0228F5D98F
:104A2000032051E0E369226A1343626A43EA821376
:104A3000A26A5208013A43EA0243E26A43EA026385
:104A4000284A5360284B01221A6600F053FF04469F
:104A5000244B1B6813F0007F06D100F04BFF001BB6
:104A60000228F5D903202FE000202DE000202BE0C4
:104A7000012B2BD01B4B5B6803F48001E269914250
:104A800026D103F03F02216A8A4223D1616A47F6A8
:104A9000C0721A40B2EB811F1ED103F44031A26AEA
:104AA0005208013AB1EB024F18D103F07063E26A89
:104AB000B3EB026F14D1002006E001207047012003
:104AC00002E0012000E0002002B070BD0120FBE701
:104AD0000120F9E70120F7E70120F5E70120F3E7DE
:104AE0000120F1E7003802400000474208B5264B9C
:104AF0009B6803F00C03042B41D0082B41D1224BBF
:104B00005A6802F03F025B6813F4800F12D01E4B0C
:104B10005968C1F388111D480023A1FB0001FCF76F
:104B20007BF8194B5B68C3F3014301335B00B0FBB7
:104B3000F3F008BD144B5868C0F388104FEA401CCE
:104B4000BCEB000C6EEB0E0E4FEA8E1343EA9C6337
:104B50004FEA8C11B1EB0C0163EB0E03DB0043EA6F
:104B60005173C90011EB000C43F1000399020023BB
:104B70004FEA8C2041EA9C51FCF74EF8D1E70348FC
:104B8000D7E70348D5E700BF00380240001BB70055
:104B90000024F400002800F09B8070B50D46044608
:104BA0004F4B1B6803F007038B4208D2CBB24C4A31
:104BB0001370136803F007038B4240F08B80236867
:104BC00013F0020F17D013F0040F04D0454A936876
:104BD00043F4E0539360236813F0080F04D0414A74
:104BE000936843F4604393603E4A936823F0F00374
:104BF000A1680B439360236813F0010F32D0636800
:104C0000012B21D09A1E012A25D9364A126812F0AA
:104C1000020F61D033498A6822F0030213438B608C
:104C200000F068FE06462F4B9B6803F00C03626899
:104C3000B3EB820F16D000F05DFE801B41F288338B
:104C40009842F0D9032042E0264A126812F4003F4D
:104C5000E0D101203BE0234A126812F0007FD9D155
:104C6000012034E01E4B1B6803F00703AB4207D959
:104C7000EAB21B4B1A701B6803F00703AB422DD13D
:104C8000236813F0040F06D0164A936823F4E05308
:104C9000E1680B439360236813F0080F07D0114AB3
:104CA000936823F46043216943EAC1039360FFF7EB
:104CB0001DFF0C4B9B68C3F303130B4AD35CD84016
:104CC0000A4B18600A4B1868FEF71CF8002070BDEC
:104CD000012070470120FAE70120F8E70120F6E7FC
:104CE000003C024000380240C04D01086C0000202A
:104CF00068000020014B1868704700BF6C0000205E
:104D000008B5FFF7F7FF044B9B68C3F38223034A00
:104D1000D35CD84008BD00BF00380240B84D010840
:104D200008B5FFF7E7FF044B9B68C3F34233034A20
:104D3000D35CD84008BD00BF00380240B84D010820
:104D40000F2303600B4B9A6802F0030242609A68DB
:104D500002F0F00282609A6802F4E052C2609B683E
:104D6000DB0803F4E0530361034B1B6803F0070304
:104D70000B60704700380240003C024030B583B001
:104D80000446036813F0050F06D1236813F0020FE1
:104D90002ED1002003B030BD4A4B00229A6600F0AD
:104DA000A9FD0546484B1B6813F0006F06D000F0C4
:104DB000A1FD431B022BF5D90320EBE76268A36832
:104DC0001B0743EA8213404AC2F884303D4B01225C
:104DD0009A6600F08FFD05463B4B1B6813F0006F91
:104DE000D3D100F087FD431B022BF5D90320D1E777
:104DF00000230193344B1A6C42F080521A641B6CEE
:104E000003F080530193019B304A136843F480738D
:104E1000136000F06FFD05462C4B1B6813F4807F78
:104E200006D100F067FD431B022BF5D90320B1E743
:104E3000254B1B6F13F4407314D0E26802F44072E8
:104E40009A420FD0204B1A6F22F440721D49012064
:104E5000C1F8400E0020C1F8400E1A671B6F13F016
:104E6000010F13D1E36803F44072B2F5407F1ED006
:104E7000154A936823F4F813936013490B6FE268A3
:104E8000C2F30B0213430B67002083E700F032FDEF
:104E900005460D4B1B6F13F0020FE3D100F02AFD06
:104EA000401B41F288339842F3D9032072E7064948
:104EB0008A6822F4F81223F0704323F440731343FA
:104EC0008B60DAE700004742003802400070004083
:104ED000204BDB6813F0100F07D01F4AD36943F053
:104EE0001003D3611B4B1022DA601A4BDB6813F0FE
:104EF000200F07D0184AD36943F00803D361154B3C
:104F00002022DA60134BDB6813F0400F07D0124AFF
:104F1000D36943F00403D3610E4B4022DA600D4B9A
:104F2000DB6813F0800F07D00B4AD36943F002030C
:104F3000D361084B8022DA60064BDB6813F0020F66
:104F400007D0054AD36943F02003D361014B022205
:104F5000DA607047003C0240E02C00207047704748
:104F600010B53A4BDB6813F0F20F13D0384B1B78B7
:104F7000DBB2012B3BD0364B1B78DBB2022B3CD093
:104F8000334B5C69FFF7A4FF2046FFF7E8FF304B87
:104F900000221A702D4BDB6813F0010F13D02B4B3E
:104FA0000122DA602A4B1B78DBB2934228D0284BCF
:104FB0001B78DBB2022B41D0254B5869FFF7CEFF9F
:104FC000234B00221A70224B1B787BB91F4B1A69A6
:104FD00022F0FF021A611A6922F080721A611A69BE
:104FE00022F000721A611A4B00221A7610BD184B7B
:104FF000DC684FF0FF32DA60C4E7154B1C69C1E78B
:10500000134B5A68013A5A605B685BB1104CE06818
:10501000FFF7A4FFE3680133E360E068217A00F062
:1050200019F8D0E70A4B4FF0FF34DC6000221A7009
:1050300000F036F82046FFF791FFC4E700F030F8A3
:10504000034B1869FFF78AFFBAE700BF003C024034
:10505000E02C0020012905D0022906D039B14FF4F7
:10506000407104E04FF4807101E04FF400710B4B8C
:105070001A6922F440721A611A690A431A611A699C
:1050800022F0F8021A611A6942EAC00040F00200F8
:1050900018611A6942F480321A617047003C02407C
:1050A000164B1B6813F4007F10D0144B1A6822F4BF
:1050B00000721A601A6842F400621A601A6822F4D8
:1050C00000621A601A6842F400721A600B4B1B6887
:1050D00013F4806F10D0094B1A6822F480621A60B2
:1050E0001A6842F480521A601A6822F480521A60D8
:1050F0001A6842F480621A60704700BF003C0240A8
:1051000000230F2B00F2E98070B582B065E085685E
:105110004FEA430E032404FA0EF425EA0405CC6892
:1051200004FA0EF42C438460446824EA02044A68BA
:10513000C2F300129A40224342605CE0DC0808346B
:1051400050F8242003F00705AD004FF00F0E0EFAC3
:1051500005FE22EA0E0E0A69AA4042EA0E0240F853
:1051600024205CE0072200E0002202FA0EF22A432B
:1051700002345A4D45F82420594A94686FEA0C02CB
:1051800024EA0C054E6816F4801F01D04CEA040591
:10519000534CA560E46802EA04054E6816F4001F4B
:1051A00001D04CEA04054E4CE560646802EA04054F
:1051B0004E6816F4003F01D04CEA0405484C656087
:1051C000246822404D6815F4803F01D04CEA040267
:1051D000434C226001330F2B7DD801229A400C688A
:1051E00004EA020C32EA0404F4D14C6804F003042B
:1051F000013C012C8BD94A6802F00302032A09D032
:10520000C4685D000322AA4024EA02048A68AA4016
:105210002243C2604A6802F00302022A8ED0046868
:105220004FEA430E032202FA0EF224EA02044A680D
:1052300002F0030202FA0EF2224302604A6812F4FC
:10524000403FC7D000220192264A546C44F4804467
:105250005464526C02F480420192019A9C08A51C8D
:105260001E4A52F8255003F0030E4FEA8E0E0F220D
:1052700002FA0EF225EA02051B4A90423FF474AF8F
:1052800002F5806290421AD002F58062904218D0F6
:1052900002F58062904216D002F58062904214D0EE
:1052A00002F58062904212D002F58062904210D0E6
:1052B00002F5806290423FF455AF082255E7012283
:1052C00053E7022251E703224FE704224DE705226C
:1052D0004BE7062249E702B070BD70470038014035
:1052E000003C014000380240000002400AB18161E8
:1052F000704709048161704708B5054B5B6903423B
:1053000000D108BD024B586106F0D2F9F9E700BFA1
:10531000003C014030B405682C6824F480242C60E3
:10532000046863608368402B05D003689960036854
:10533000DA6030BC704703689A600368D960F8E7A8
:1053400010B40368D9B210390A4AA2FB014212090B
:10535000094CA25CC2655F2907D96FF309030433C6
:105360008365806D5DF8044B70476FF309038365B7
:10537000F7E700BFABAAAAAAB04D0108836A826909
:1053800092B9012B0AD0022B02D00BB1002070473A
:10539000C36A13F0807F28D100207047C36AB3F13D
:1053A000C07F24D000207047B2F5005F09D0022BE7
:1053B00025D9032B25D1C36A13F0807F23D1002088
:1053C0007047032B03D8DFE803F01404140A00200D
:1053D0007047C36A13F0807F0DD100207047C36A05
:1053E000B3F1C07F09D00020704701207047012031
:1053F000704701207047012070470120704701204D
:1054000070470020704701207047000070B50446C7
:1054100000F070FA002C5BD00546022384F835308A
:10542000002384F834302268136823F001031360EA
:1054300023681A6812F0010F0AD000F05BFA431BD0
:10544000052BF5D920236365032084F8350070BD52
:105450001A68204911406268A0680243E06802436C
:105460002069024360690243A0690243E069024384
:10547000206A02430A43616A04291ED01A60266822
:10548000756925F00705636A1D43042B07D1A36ADC
:105490001D43E36A1BB12046FFF770FF90B97561A9
:1054A0002046FFF74DFFE26D3F23934083600020CD
:1054B0006065012384F83530C9E7E16A206B014358
:1054C0000A43DBE740236365012084F83500BEE72B
:1054D0000120BCE73F8010F038B50446856D90F898
:1054E000340001282BD0012084F8340094F83500D2
:1054F000C0B2012804D0002384F83430022038BD23
:10550000022084F83500002060652046FFF702FF86
:10551000E26D3F239340AB602268136843F01603AB
:105520001360236C23B12268136843F008031360EF
:105530002268136843F0010313600020DFE70220B4
:10554000DDE770B50446866D00F0D4F994F8353087
:10555000DBB2022B06D080236365002384F834304D
:10556000012070BD05462268136823F016031360FE
:105570002268536923F080035361236CE3B12268EE
:10558000136823F0080313602268136823F00103F3
:10559000136023681B6813F0010F11D000F0AAF903
:1055A000431B052BF5D920236365032084F83500C0
:1055B000002384F83430D4E7A36C002BDFD1E3E779
:1055C000E26D3F239340B360012384F8353000201F
:1055D00084F83400C5E790F83530DBB2022B03D0F5
:1055E0008023436501207047052380F83530026829
:1055F000136823F00103136000207047F0B583B0F7
:10560000044600230193724B1D68724BA3FB0535C2
:10561000AD0A876D3E68C26D08239340334210D0B7
:1056200003681A6812F0040F0BD01A6822F0040203
:105630001A60C26D08239340BB60436D43F00103C1
:105640004365E26D01239340334209D022685269D9
:1056500012F0800F04D0BB60636D43F002036365FA
:10566000E26D04239340334209D02268126812F09D
:10567000020F04D0BB60636D43F004036365E26D09
:1056800010239340334224D02268126812F0080F8E
:105690001FD0BB6023681A6812F4802F0DD01B68DE
:1056A00013F4002F04D1236C9BB12046984710E0DF
:1056B000A36C73B1204698470BE01A6812F4807F00
:1056C00003D11A6822F008021A60236C0BB120463D
:1056D0009847E26D20239340334255D022681268E8
:1056E00012F0100F50D0BB6094F83530DBB2052BB0
:1056F0000ED023681A6812F4802F33D01B6813F47D
:10570000002F2AD1636C002B3ED0204698473BE007
:105710002268136823F0160313602268536923F08C
:1057200080035361236CA3B12268136823F008033C
:105730001360E26D3F239340BB60012384F8353052
:10574000002384F83430236D002B3FD02046984747
:105750003CE0A36C002BE7D1EBE7E36BA3B1204661
:10576000984711E01A6812F4807F09D11A6822F074
:1057700010021A60012384F83530002384F8343095
:10578000E36B0BB120469847636DFBB1636D13F07B
:10579000010F17D0052384F835302268136823F0F1
:1057A00001031360019B01330193AB4204D82368CA
:1057B0001B6813F0010FF5D1012384F83530002365
:1057C00084F83430E36C0BB12046984703B0F0BD49
:1057D0006C000020B5814E1B90F83500704700002A
:1057E000002808DB0901C9B200F1604000F5614002
:1057F00080F80013704700F00F000901C9B2014B97
:105800001954704714ED00E000B500F00700C0F136
:10581000070CBCF1040F28BF4FF0040C031D062B2E
:105820000FD9C31E4FF0FF3E0EFA0CF021EA000123
:1058300099400EFA03FE22EA0E0241EA02005DF8E8
:1058400004FB0023EEE70000074AD36823F4E0637B
:105850001B041B0C000200F4E060034343F0BF6331
:1058600043F40033D360704700ED00E010B5044608
:10587000054BD868C0F30220FFF7C6FF014620465B
:10588000FFF7AEFF10BD00BF00ED00E0002807DB12
:1058900000F01F02400901239340024A42F82030E1
:1058A000704700BF00E100E008B50B4B1A6842F4F6
:1058B00000721A601A6842F480621A601A6842F430
:1058C00080721A600320FFF7BFFF0F20FDF71AFA5E
:1058D000FDF7EEF9002008BD003C0240034A1168C4
:1058E000034B1B780B441360704700BF002D002052
:1058F00064000020014B1868704700BF002D002095
:1059000038B50446FFF7F6FF0546B4F1FF3F02D075
:10591000044B1B781C44FFF7EDFF401BA042FAD359
:1059200038BD00BF640000204A4B5A6822F4403260
:105930005A605A6841680A435A600268536823F4FF
:105940008073536002685368016943EA012353601E
:105950000268536823F0407353600268536881689B
:105960000B4353600268936823F4006393600268FA
:105970009368C1680B439360826A374B9A4257D051
:105980000268936823F07063936002689368816A89
:105990000B4393600268936823F04053936002685E
:1059A0009368C16A0B4393600268936823F0020313
:1059B000936002689368017E43EA4103936090F824
:1059C0002030002B3FD00268536843F400635360DB
:1059D0000268536823F46043536001684B68426A6D
:1059E000013A43EA42334B600268D36A23F47003FE
:1059F000D3620168CB6AC269013A43EA0253CB62BF
:105A00000268936823F4007393600268936890F8C7
:105A1000301043EA412393600268936823F4806363
:105A2000936002689368416943EA812393607047F9
:105A30000268936823F0706393600268936823F0B0
:105A400040539360B0E70268536823F400635360E7
:105A5000CAE700BF002301400100000F38B310B5B2
:105A60000446036C43B1236C13F0100F0BD00120DC
:105A7000002384F83C3010BDFBF734FC0023636442
:105A800084F83C30EFE7236C23F4885323F00203BF
:105A900043F0020323642046FFF746FF00206064C2
:105AA000236C23F0030343F001032364E0E70120A8
:105AB0007047000030B482B00022019290F83C2080
:105AC000012A00F0B6800346012280F83C200A68D3
:105AD000092A40D90468E06892B202EB42021E3AF9
